:020000040000FA
:04000000ACEF04F06D
:100800000020202020202020202020202020202008
:100810002000556E6971756520436972637569744E
:1008200073005261696E2044657465637465640089
:0108300000C7
:10083200000E936E000E946E010E956E9FEC04F006
:10084200120E026E080E036E8AEC04F0C00E73ECF8
:1008520004F083B018D0C00E73EC04F0220E026EC6
:10086200080E036E8AEC04F0000E056E000E046E94
:1008720005BE06D0E80E045C030E0558D8B0E9D7D1
:10088200044A052AF5D7C00E73EC04F0010E026E7D
:10089200080E036E8AEC04F0000E056E000E046E64
:1008A20005BE06D0E80E045C030E0558D8B0D1D7B9
:1008B200044A052AF5D7016E01C081FF8280829227
:1008C2008284000E056E000E046E05BE06D0E80E90
:1008D200045C030E0558D8B003D0044A052AF5D7A4
:1008E20082941200016E01C081FF82908292828402
:1008F200000E056E000E046E05BE06D0E80E045C06
:10090200030E0558D8B003D0044A052AF5D78294BD
:1009120012000AD002C0F6FF03C0F7FF0800F5502C
:100922005CEC04F0024A032A02C0F6FF03C0F7FFA0
:100932000800F5500009D8B41200ECD7380E73EC59
:1009420004F00C0E73EC04F0060E73EC04F0800E4F
:1009520073EC04F01200056A046A000EF86E080EC9
:08096200F76E000119EF04F02B
:020000040020DA
:08000000FFFFFFFFFFFFFFFF00
:020000040030CA
:0E000000000C1F1EFF8181FF0FC00FE00F409C
:00000001FF
